:100000000C9434000C9449000C9449000C94490061
:100010000C9449000C9449000C9449000C9449003C
:100020000C9449000C9449000C9449000C9449002C
:100030000C9449000C9449000C9449000C9449001C
:100040000C9449000C9449000C948E000C944900C7
:100050000C9449000C9449000C9449000C944900FC
:100060000C9449000C94490011241FBECFEFD8E036
:10007000DEBFCDBF11E0A0E0B1E0E2E7F2E002C0F8
:1000800005900D92A431B107D9F70E9406010C9496
:1000900037010C9400008AB188668AB98BB18779E0
:1000A0008BB9089588E090E09093C5008093C400D8
:1000B000E1ECF0E080818869808308958091C00040
:1000C00087FFFCCF8091C60008959091C00095FFF6
:1000D000FCCF8093C6000895CF93DF93EC01899104
:1000E000882319F00E946500FACFDF91CF9108951F
:1000F000CF93DF9300D01F92CDB7DEB7BE016F5F05
:100100007F4F90E00E94B400CE0101960E946C00E7
:100110000F900F900F90DF91CF9108951F920F9243
:100120000FB60F9211242F933F934F935F936F93CA
:100130007F938F939F93AF93BF93EF93FF938091A0
:10014000C6000E946500FF91EF91BF91AF919F9112
:100150008F917F916F915F914F913F912F910F9070
:100160000FBE0F901F901895CF93DF93CDB7DEB7DA
:1001700061970FB6F894DEBF0FBECDBF9C01E1E0E2
:10018000F0E02031310538F044E0369527954A9566
:10019000E1F73196F6CF9B012E0F3F1FF901108238
:1001A00041E1E3E0F1E0DE01119601900D924A9504
:1001B000E1F7F9019F01261B370B8031910588F08B
:1001C000DC01AF70BB2721E030E02C0F3D1FA20FF8
:1001D000B31F2C91229324E0969587952A95E1F7F9
:1001E000E9CFFB01E20FF31F3197A1E0B0E0AC0FC4
:1001F000BD1FA80FB91F8C91808361960FB6F8942C
:10020000DEBF0FBECDBFDF91CF910895CF93DF93B7
:10021000CDB7DEB727970FB6F894DEBF0FBECDBFC0
:100220000E944B0080E2898380E48A8388E08B838C
:1002300080E68C8388E48D8388E28E8388E68F83D2
:1002400080E0E1E0F0E0EC0FFD1FE80FF11D908190
:100250009BB98F5F873008F080E02FEF33ED90E39C
:10026000215030409040E1F700C00000EACFF89400
:02027000FFCFBE
:1002720001010030313233343536373839414243A7
:0402820044454600A9
:00000001FF
