:100000000C9434000C9449000C9449000C94490061
:100010000C9449000C9449000C9449000C9449003C
:100020000C9449000C9449000C9449000C9449002C
:100030000C9449000C9449000C9449000C9449001C
:100040000C9449000C9449000C9495000C944900C0
:100050000C9449000C9449000C9449000C944900FC
:100060000C9449000C94490011241FBECFEFD8E036
:10007000DEBFCDBF11E0A0E0B1E0EEE6F2E002C0ED
:1000800005900D92A032B107D9F70E942B010C9474
:1000900035010C940000CF93C82F80E091E00E94BE
:1000A00073008C2F0E947F008CE091E0CF910C9424
:1000B000730088E090E09093C5008093C400E1EC69
:1000C000F0E080818869808308958091C00087FF77
:1000D000FCCF8091C60008959091C00095FFFCCFA1
:1000E0008093C6000895CF93DF93EC018991882314
:1000F00019F00E946C00FACFDF91CF910895CF9351
:10010000DF9300D01F92CDB7DEB7BE016F5F7F4F88
:1001100090E00E94D900CE0101960E9473000F90DA
:100120000F900F90DF91CF9108951F920F920FB60D
:100130000F9211242F933F934F935F936F937F936D
:100140008F939F93AF93BF93EF93FF938091C600DC
:100150000E946C00FF91EF91BF91AF919F918F91A1
:100160007F916F915F914F913F912F910F900FBEB3
:100170000F901F90189588E48093B800E9EBF0E0A9
:1001800080818C7F8083089588E38093BA0084EA1D
:100190008093BC008091BC0087FFFCCF8091B900A8
:1001A0000C944B0084E98093BC008091B9000C94BE
:1001B0004B00CF93DF93CDB7DEB761970FB6F894BE
:1001C000DEBF0FBECDBF9C01E1E0F0E02031310584
:1001D00038F044E0369527954A95E1F73196F6CF09
:1001E0009B012E0F3F1FF901108241E1EFE0F1E08A
:1001F000DE01119601900D924A95E1F7F9019F01F8
:10020000261B370B8031910588F0DC01AF70BB27CE
:1002100021E030E02C0F3D1FA20FB31F2C91229341
:1002200024E0969587952A95E1F7E9CFFB01E20F47
:10023000F31F3197A1E0B0E0AC0FBD1FA80FB91FAD
:100240008C91808361960FB6F894DEBF0FBECDBF50
:10025000DF91CF91089578940E9459000E94BB00CD
:0E0260000E94C4000E94D200FFCFF894FFCF8E
:10026E007374617475732069733A20000D0A00303F
:10027E0031323334353637383941424344454600FE
:00000001FF
