:100000000C9434000C9449000C9449000C94490061
:100010000C9449000C9449000C9449000C9449003C
:100020000C9449000C9449000C9449000C9449002C
:100030000C9449000C9449000C9449000C9449001C
:100040000C9449000C9449000C9487000C944900CE
:100050000C9449000C9449000C9449000C944900FC
:100060000C9449000C94490011241FBECFEFD8E036
:10007000DEBFCDBF11E0A0E0B1E0E4E7F2E002C0F6
:1000800005900D92A231B107D9F70E9411010C948D
:1000900038010C94000088E090E09093C5008093B4
:1000A000C400E1ECF0E0808188698083089580914C
:1000B000C00087FFFCCF8091C60008959091C000DA
:1000C00095FFFCCF8093C6000895CF93DF93EC019A
:1000D0008991882319F00E945E00FACFDF91CF91B9
:1000E0000895CF93DF9300D01F92CDB7DEB7BE0146
:1000F0006F5F7F4F90E00E94AD00CE0101960E949D
:1001000065000F900F900F90DF91CF9108951F928F
:100110000F920FB60F9211242F933F934F935F933B
:100120006F937F938F939F93AF93BF93EF93FF93BF
:100130008091C6000E945E00FF91EF91BF91AF9148
:100140009F918F917F916F915F914F913F912F91EF
:100150000F900FBE0F901F901895CF93DF93CDB7E0
:10016000DEB761970FB6F894DEBF0FBECDBF9C011E
:10017000E1E0F0E02031310538F044E03695279594
:100180004A95E1F73196F6CF9B012E0F3F1FF901FB
:10019000108241E1E0E0F1E0DE01119601900D9264
:1001A0004A95E1F7F9019F01261B370B8031910534
:1001B00088F0DC01AF70BB2721E030E02C0F3D1F41
:1001C000A20FB31F2C91229324E0969587952A9530
:1001D000E1F7E9CFFB01E20FF31F3197A1E0B0E0B7
:1001E000AC0FBD1FA80FB91F8C91808361960FB60D
:1001F000F894DEBF0FBECDBFDF91CF910895F89484
:10020000F999FECF92BD81BDF89A80B50895F89412
:10021000F999FECF92BD81BD60BDFA9AF99A7894A2
:10022000089584B1876184B985B1887E85B980E0FD
:1002300090E00E94FF00C82F20E04A990AC02111D7
:1002400009C0CF5F6C2F80E090E00E94070121E0A1
:1002500001C020E08C2F8870880F9C2F9770892B0D
:1002600085B98FE39CE90197F1F700C00000E5CF65
:04027000F894FFCF30
:1002740030313233343536373839414243444546D8
:02028400000078
:00000001FF
