:100000000C9434000C9449000C9449000C94490061
:100010000C9449000C9449000C9449000C9449003C
:100020000C9449000C9449000C9449000C9449002C
:100030000C9449000C9449000C9449000C9449001C
:100040000C9449000C9449000C949B000C944900BA
:100050000C9449000C9449000C9449000C944900FC
:100060000C9449000C94490011241FBECFEFD8E036
:10007000DEBFCDBF11E0A0E0B1E0EEE5F2E002C0EE
:1000800005900D92A431B107D9F70E9413010C9489
:100090002D010C94000090917C00907F8F70892B33
:1000A00080937C0080917A00806480937A008091B4
:1000B0007A0086FDFCCF809179000C94850088E061
:1000C00090E09093C5008093C400E1ECF0E0808163
:1000D0008869808308958091C00087FFFCCF80915C
:1000E000C60008959091C00095FFFCCF8093C60094
:1000F0000895CF93DF93EC018991882319F00E9432
:100100007200FACFDF91CF910895CF93DF9300D0A3
:100110001F92CDB7DEB7BE016F5F7F4F90E00E94A8
:10012000C100CE0101960E9479000F900F900F90B0
:10013000DF91CF9108951F920F920FB60F92112465
:100140002F933F934F935F936F937F938F939F93DF
:10015000AF93BF93EF93FF938091C6000E9472000C
:10016000FF91EF91BF91AF919F918F917F916F918F
:100170005F914F913F912F910F900FBE0F901F9065
:100180001895CF93DF93CDB7DEB761970FB6F8948C
:10019000DEBF0FBECDBF9C01E1E0F0E020313105B4
:1001A00038F044E0369527954A95E1F73196F6CF39
:1001B0009B012E0F3F1FF901108241E1E3E0F1E0C6
:1001C000DE01119601900D924A95E1F7F9019F0128
:1001D000261B370B8031910588F0DC01AF70BB27FF
:1001E00021E030E02C0F3D1FA20FB31F2C91229372
:1001F00024E0969587952A95E1F7E9CFFB01E20F78
:10020000F31F3197A1E0B0E0AC0FBD1FA80FB91FDD
:100210008C91808361960FB6F894DEBF0FBECDBF80
:10022000DF91CF9108950E945F00789480E68093DB
:100230007C0087E880937A0080E00E944B0080E099
:1002400091E00E9479002FEF89EF90E021508040EB
:0E0250009040E1F700C00000EFCFF894FFCF20
:10025E000D0A0030313233343536373839414243A6
:04026E0044454600BD
:00000001FF
