:100000000C9434000C9449000C9449000C94490061
:100010000C9449000C9449000C9449000C9449003C
:100020000C9449000C9449000C9449000C9449002C
:100030000C9449000C947C000C9449000C944900E9
:100040000C9449000C9449000C9449000C9449000C
:100050000C9449000C9449000C9449000C944900FC
:100060000C9449000C94490011241FBECFEFD8E036
:10007000DEBFCDBF11E0A0E0B1E0E4E5F1E002C0F9
:1000800005900D92A031B107D9F70E94A2000C94FF
:10009000A8000C94000083E0809380008DE18093A1
:1000A0008100EFE6F0E080818160808382E19AE761
:1000B0009093890080938800089588E090E0909361
:1000C000C5008093C400E1ECF0E08081886080830B
:1000D00008959091C00095FFFCCF8093C6000895CD
:1000E000CF93DF93EC018991882319F00E94690076
:1000F000FACFDF91CF9108951F920F920FB60F9212
:1001000011242F933F934F935F936F937F938F931C
:100110009F93AF93BF93EF93FF9380E091E00E9492
:100120007000FF91EF91BF91AF919F918F917F915F
:100130006F915F914F913F912F910F900FBE0F9054
:100140001F9018950E944B000E945D007894FFCF8D
:04015000F894FFCF51
:1001540048656C6C6F20576F726C64210D0A000047
:00000001FF
