:100000000C9434000C9449000C9449000C94490061
:100010000C9449000C9449000C9449000C9449003C
:100020000C9449000C9449000C9449000C9449002C
:100030000C9449000C9449000C9449000C9449001C
:100040000C9449000C9449000C9497000C944900BE
:100050000C9449000C9449000C9449000C944900FC
:100060000C9449000C94490011241FBECFEFD8E036
:10007000DEBFCDBF11E0A0E0B1E0EEE3F3E002C0EF
:1000800005900D92A834B107D9F70E946A010C942B
:100090009D010C940000CF93C82F83E191E00E9452
:1000A00075008C2F0E94810083E391E0CF910C9426
:1000B00075000C94810088E090E09093C5008093D7
:1000C000C400E1ECF0E0808188698083089580912C
:1000D000C00087FFFCCF8091C60008959091C000BA
:1000E00095FFFCCF8093C6000895CF93DF93EC017A
:1000F0008991882319F00E946E00FACFDF91CF9189
:100100000895CF93DF9300D01F92CDB7DEB7BE0125
:100110006F5F7F4F90E00E941801CE0101960E9410
:1001200075000F900F900F90DF91CF9108951F925F
:100130000F920FB60F9211242F933F934F935F931B
:100140006F937F938F939F93AF93BF93EF93FF939F
:100150008091C6000E946E00FF91EF91BF91AF9118
:100160009F918F917F916F915F914F913F912F91CF
:100170000F900FBE0F901F90189588E48093B800E1
:10018000E9EBF0E080818C7F8083ECEBF0E0808114
:1001900081608083089584EA8093BC008091BC00D4
:1001A00087FFFCCF8FE191E00E9475008091B9003C
:1001B0000C944B0084E98093BC008091B9000C94AE
:1001C0004B00CF93C82F80E78093BB0084E88093D7
:1001D000BC008091BC0087FFFCCF87E291E00E94C9
:1001E00075008091B9000E944B00C093BB0084E869
:1001F0008093BC008091BC0087FFFCCF8091B90048
:10020000CF910C944B0081E78093BB0084E88093EE
:10021000BC008091BC0087FFFCCF8FE291E00E9480
:1002200075008091B9000E944B008091BB00089539
:10023000CF93DF93CDB7DEB761970FB6F894DEBFEB
:100240000FBECDBF9C01E1E0F0E02031310538F078
:1002500044E0369527954A95E1F73196F6CF9B0114
:100260002E0F3F1FF901108241E1E6E3F1E0DE01CC
:10027000119601900D924A95E1F7F9019F01261B15
:10028000370B8031910588F0DC01AF70BB2721E08E
:1002900030E02C0F3D1FA20FB31F2C91229324E0BE
:1002A000969587952A95E1F7E9CFFB01E20FF31FB9
:1002B0003197A1E0B0E0AC0FBD1FA80FB91F8C9122
:1002C000808361960FB6F894DEBF0FBECDBFDF917D
:1002D000CF91089578940E945B000E94BD000E9417
:1002E000CB002FEF83EF91E0215080409040E1F769
:1002F00000C000002FEF83EF91E02150804090403C
:10030000E1F700C000000E940301C82F80E091E0E7
:100310000E9475008C2F0E94810083E391E00E946F
:1003200075000E94DA002FEF83ED90E321508040AA
:0E0330009040E1F700C00000F6CFF894FFCF38
:10033E0064617461207265636569766564206973B2
:10034E003A20007374617475732069733A200073D8
:10035E00746172740D0A0077726974650D0A007209
:10036E006561640D0A003031323334353637383931
:08037E004142434445460000E2
:00000001FF
