:100000000C9434000C9449000C9449000C94490061
:100010000C9449000C9449000C9449000C9449003C
:100020000C9449000C9449000C9449000C9449002C
:100030000C9449000C9449000C9449000C9449001C
:100040000C9449000C9449000C9449000C9449000C
:100050000C9449000C9449000C9449000C944900FC
:100060000C9449000C94490011241FBECFEFD8E036
:10007000DEBFCDBF11E0A0E0B1E0E0EAF0E002C0F9
:1000800005900D92A430B107D9F70E944B000C9453
:100090004E000C94000080E090E00895F894FFCFAB
:0400A000808D5B00F4
:00000001FF
