:100000000C9434000C943E000C943E000C943E0082
:100010000C943E000C943E000C943E000C943E0068
:100020000C943E000C943E000C943E000C943E0058
:100030000C943E000C943E000C943E000C943E0048
:100040000C943E000C943E000C943E000C943E0038
:100050000C943E000C943E000C943E000C943E0028
:100060000C943E000C943E0011241FBECFEFD8E04C
:10007000DEBFCDBF0E9440000C9480000C940000B5
:10008000219A82E8809380008DE18093810089E04D
:100090009DE390938700809386008AE090E030E0B3
:1000A00020E04CE9009751F0489FB001499F700D46
:1000B0001124709389006093880004C01092890015
:1000C000109288004A9907C0211108C08436910512
:1000D00020F40A9602C020E001C021E04C9906C03D
:1000E000311107C0009721F00A9702C030E001C02B
:1000F00031E0EFE3FCE93197F1F700C00000D2CF27
:04010000F894FFCFA1
:00000001FF
