:100000000C9434000C943E000C943E000C943E0082
:100010000C943E000C943E000C943E000C943E0068
:100020000C943E000C943E000C943E000C943E0058
:100030000C943E000C943E000C943E000C943E0048
:100040000C943E000C943E000C943E000C943E0038
:100050000C943E000C943E000C943E000C943E0028
:100060000C943E000C943E0011241FBECFEFD8E04C
:10007000DEBFCDBF0E9453000C9462000C940000C0
:1000800088E090E09093C5008093C400E1ECF0E03C
:1000900080818860808308959091C00095FFFCCF97
:1000A0008093C60008950E9440008AE50E944C009B
:1000B0002FEF83ED90E3215080409040E1F700C0A6
:0800C0000000F3CFF894FFCF1C
:00000001FF
