:100000000C94B1000C94C6000C94C6000C94C6006D
:100010000C94C6000C94C6000C94C6000C94C60048
:100020000C94C6000C94C6000C94C6000C94C60038
:100030000C94C6000C94C6000C94C6000C94C60028
:100040000C94C6000C94C6000C9414010C94C600C9
:100050000C94C6000C94C6000C94C6000C94C60008
:100060000C94C6000C94C60000407A10F35A00A00D
:10007000724E18090010A5D4E80000E87648170071
:1000800000E40B54020000CA9A3B000000E1F505B1
:10009000000080969800000040420F000000A086FB
:1000A00001000000102700000000E803000000002D
:1000B0006400000000000A000000000001000000D1
:1000C00000002C76D888DC674F0823DFC1DFAE59EB
:1000D000E1B1B796E5E3E453C63AE651997696E87E
:1000E000E6C28426EB898C9B62ED407C6FFCEFBC02
:1000F0009C9F40F2BAA56FA5F490055A2AF75C932D
:100100006B6CF9676DC11BFCE0E40D47FEF520E662
:10011000B500D0ED902E0300943577050080841E45
:10012000080000204E0A000000C80C333333330FA0
:10013000986E12831141EF8D2114893BE65516CF3D
:10014000FEE6DB18D1844B381BF77C1D901DA4BB49
:10015000E424203284725E228100C9F124ECA1E5FE
:100160003D2711241FBECFEFD8E0DEBFCDBF11E089
:10017000A0E0B1E0ECE1FFE002C005900D92AA37EB
:10018000B107D9F70E941D020C948C070C94000053
:10019000CF93C82F82E291E00E94F2008C2F0E9440
:1001A000FE008FE191E0CF910C94F2000C94FE00E0
:1001B00088E090E09093C5008093C400E1ECF0E00B
:1001C00080818869808308958091C00087FFFCCF7B
:1001D0008091C60008959091C00095FFFCCF809358
:1001E000C6000895CF93DF93EC018991882319F01D
:1001F0000E94EB00FACFDF91CF910895CF93DF9368
:1002000000D01F92CDB7DEB7BE016F5F7F4F90E089
:100210000E946801CE0101960E94F2000F900F909B
:100220000F90DF91CF9108951F920F920FB60F920A
:1002300011242F933F934F935F936F937F938F93EB
:100240009F93AF93BF93EF93FF938091C6000E945B
:10025000EB00FF91EF91BF91AF919F918F917F91B3
:100260006F915F914F913F912F910F900FBE0F9023
:100270001F90189588E48093B800E9EBF0E0808146
:100280008C7F8083ECEBF0E0808181608083089537
:100290001092BC0084EA8093BC008091BC0087FF70
:1002A000FCCF089584E98093BC0008958093BB003F
:1002B00084E88093BC008091BC0087FFFCCF089548
:1002C00084EC8093BC008091BC0087FFFCCF089534
:1002D000CF93DF93CDB7DEB761970FB6F894DEBF4B
:1002E0000FBECDBF9C01E1E0F0E02031310538F0D8
:1002F00044E0369527954A95E1F73196F6CF9B0174
:100300002E0F3F1FF901108241E1EEE2F1E0DE0124
:10031000119601900D924A95E1F7F9019F01261B74
:10032000370B8031910588F0DC01AF70BB2721E0ED
:1003300030E02C0F3D1FA20FB31F2C91229324E01D
:10034000969587952A95E1F7E9CFFB01E20FF31F18
:100350003197A1E0B0E0AC0FBD1FA80FB91F8C9181
:10036000808361960FB6F894DEBF0FBECDBFDF91DC
:10037000CF9108950E94480181E70E9456010C9494
:1003800060010E94480180E70C9456010E94C1015F
:100390008FE39CE90197F1F700C000008CEA0E940E
:1003A000560183E30E94560180E00E9456019FEFB0
:1003B00027EE83E0915020408040E1F700C000002C
:1003C0000895CF93C82F2FEF87EE93E02150804000
:1003D0009040E1F700C000008FE391E00E94F2003E
:1003E0000E94C1018C2F0E94560180E00E9456019C
:1003F000CF910C9452010E94BA018091BB008831C8
:10040000D9F48FE491E00E94F2000E9452018BE146
:100410000E94E1018CE10E94E1018EE10E94E10174
:100420000E94C1018FE39CE90197F1F700C0000031
:100430000E94C6010C94BA010895CF93DF93CDB703
:10044000DEB76C970FB6F894DEBF0FBECDBF7894C1
:100450000E94D8000E943A011E0109E1200E311CC1
:10046000F3E0AF2EB12CC12CD12C7601260137013F
:100470000E94C6010E94FB018E010F5F1F4F902E4C
:10048000812E0E946001D8011D921D921D921C9226
:1004900013978091BB0090E0A0E0B0E0F801819359
:1004A0009193A193B1938F012E163F0651F70985C1
:1004B0001A852B853C85098F1A8F2B8F3C8F4D8594
:1004C0005E856F857889762F652F542F442789891B
:1004D0009A89AB89BC89482B592B6A2B7B2BD90174
:1004E000C8018F709927AA27BB27DC019927882785
:1004F0008A019B01082B192B2A2B3B2BC901B80120
:100500000E94080420E030E040E855E30E94960491
:1005100020E030E048E453E40E94960420E030E01C
:1005200048E452E40E9429039B01AC01C301B201DB
:100530000E942A032B013C0149815A816B817C81F5
:100540008A019B014CE0000F111F221F331F4A95A7
:10055000D1F74D815E816F817885DB01CA0154E05E
:10056000880F991FAA1FBB1F5A95D1F7B901A8017F
:10057000482B592B6A2B7B2B898D9A8DAB8DBC8D8B
:10058000807F9927AA27BB27E4E0B695A795979582
:100590008795EA95D1F78A019B01082B192B2A2B05
:1005A0003B2BC901B8010E94080420E030E040E87C
:1005B00055E30E94960420E030E048EC52E40E94AB
:1005C00096049B01AC01C701B6010E942A036B018E
:1005D0007C011FEF27E93AE3115020403040E1F75A
:1005E00000C0000081E0A81AB10809F041CF1D82C7
:1005F00020E030E040E450E4C301B2010E949603E1
:10060000092D182D21E044E00E9403058C0180E0B3
:1006100091E00E94F200C8010E94F20020E030E068
:1006200040E450E4C701B6010E949603092D182D3D
:1006300020E044E00E9403058C018EE091E00E94DE
:10064000F200C8010E94F2008EE191E00E94F200E7
:1006500007CF5058BB27AA270E9441030C945C0483
:100660000E944E0438F00E94550420F039F49F3F58
:1006700019F426F40C944B040EF4E095E7FB0C946B
:100680004504E92F0E946D0458F3BA1762077307F7
:100690008407950720F079F4A6F50C948F040EF4E6
:1006A000E0950B2EBA2FA02D0B01B90190010C0182
:1006B000CA01A0011124FF27591B99F0593F50F49A
:1006C000503E68F11A16F040A22F232F342F4427F2
:1006D000585FF3CF469537952795A795F0405395EA
:1006E000C9F77EF41F16BA0B620B730B840BBAF0BA
:1006F0009150A1F0FF0FBB1F661F771F881FC2F725
:100700000EC0BA0F621F731F841F48F48795779538
:100710006795B795F7959E3F08F0B0CF9395880FF2
:1007200008F09927EE0F9795879508950E94AA03E0
:100730000C945C040E94550458F00E944E0440F052
:1007400029F45F3F29F00C94450451110C94900456
:100750000C944B040E946D0468F39923B1F3552364
:1007600091F3951B550BBB27AA27621773078407C4
:1007700038F09F5F5F4F220F331F441FAA1FA9F35A
:1007800035D00E2E3AF0E0E832D091505040E69548
:10079000001CCAF72BD0FE2F29D0660F771F881FA9
:1007A000BB1F261737074807AB07B0E809F0BB0B9C
:1007B000802DBF01FF2793585F4F3AF09E3F5105B0
:1007C00078F00C9445040C9490045F3FE4F3983E59
:1007D000D4F3869577956795B795F7959F5FC9F799
:1007E000880F911D9695879597F90895E1E0660F1A
:1007F000771F881FBB1F621773078407BA0720F093
:10080000621B730B840BBA0BEE1F88F7E0950895FB
:10081000E89409C097FB3EF490958095709561959A
:100820007F4F8F4F9F4F9923A9F0F92F96E9BB2750
:100830009395F695879577956795B795F111F8CFCC
:10084000FAF4BB0F11F460FF1BC06F5F7F4F8F4F37
:100850009F4F16C0882311F096E911C0772321F02D
:100860009EE8872F762F05C0662371F096E8862FC5
:1008700070E060E02AF09A95660F771F881FDAF71C
:10088000880F9695879597F9089597F99F6780E85F
:1008900070E060E008959FEF80EC089500240A94D2
:1008A0001616170618060906089500240A9412164B
:1008B0001306140605060895092E0394000C11F47E
:1008C000882352F0BB0F40F4BF2B11F460FF04C02B
:1008D0006F5F7F4F8F4F9F4F089557FD9058440F84
:1008E000551F59F05F3F71F04795880F97FB991F8F
:1008F00061F09F3F79F0879508951216130614064C
:10090000551FF2CF4695F1DF08C0161617061806D8
:10091000991FF1CF86957105610508940895E894B3
:10092000BB2766277727CB0197F908950E94A90472
:100930000C945C040E944E0438F00E94550420F090
:10094000952311F00C9445040C944B0411240C9441
:1009500090040E946D0470F3959FC1F3950F50E0D1
:10096000551F629FF001729FBB27F00DB11D639F61
:10097000AA27F00DB11DAA1F649F6627B00DA11D07
:10098000661F829F2227B00DA11D621F739FB00DAD
:10099000A11D621F839FA00D611D221F749F33271D
:1009A000A00D611D231F849F600D211D822F762FB6
:1009B0006A2F11249F5750409AF0F1F088234AF093
:1009C000EE0FFF1FBB1F661F771F881F91505040FF
:1009D000A9F79E3F510580F00C9445040C949004B7
:1009E0005F3FE4F3983ED4F3869577956795B79586
:1009F000F795E7959F5FC1F7FE2B880F911D9695A0
:100A0000879597F90895EF920F931F93CF93DF93F4
:100A1000E80147FD02C034E001C034E1042E000CBF
:100A2000550B57FF03C0519541955109E32E022FF5
:100A3000242FAE010E942305CE01DF91CF911F919B
:100A40000F91EF900895A9E0B0E0E9E2F5E00C9491
:100A50005B076A01122FB02E2BE3201720F0FF2432
:100A6000F394F00E02C02CE3F22E0F2D27E0AE011E
:100A70004F5F5F4F0E947D06BC014981842F8970C2
:100A8000813031F0E1FC06C0E0FE06C090E205C016
:100A90009DE203C09BE201C090E05E2D507143FFD8
:100AA0003CC0911102C083E001C084E0811718F4BA
:100AB000212F281B01C020E051110BC0F601822F0D
:100AC00030E2882319F031938150FBCFC20ED11C44
:100AD00020E0992329F0D6019C93F60131966F010D
:100AE000C6010396E2FE0AC03EE4D6013C9341E40F
:100AF00011964C93119712963C9306C03EE6F60170
:100B0000308341E641833283FC01322F40E23323BC
:100B100009F442C041933150FACF42FF44C09111D1
:100B200002C083E001C084E0811718F4212F281B44
:100B300001C020E051110BC0F601822F30E2882362
:100B400019F031938150FBCFC20ED11C20E09923C4
:100B500029F0D6019C93F60131966F01C6010396E8
:100B6000E2FE0BC039E4D6013C933EE411963C937F
:100B7000119736E412963C9307C039E6F6013083AC
:100B80003EE6318336E63283FC01322F40E23323E6
:100B900019F041933150FBCFFC01E20FF11D10829F
:100BA0008EEF9FEFA6C021E030E0911102C020E05F
:100BB00030E0161617061CF4FB01319602C0E1E086
:100BC000F0E02E0F3F1FBB2021F0EB2DF0E031961F
:100BD00002C0E0E0F0E02E0F3F1FE12FF0E02E1703
:100BE0003F071CF4121B212F01C020E08E2D8871BD
:100BF00059F4F601822F30E2882319F031938150A5
:100C0000FBCFC20ED11C20E0992329F0D6019C9382
:100C1000F60131966F0151110BC0F601822F90E35E
:100C2000882319F091938150FBCFC20ED11C20E094
:100C30000F2D060F9A81342F307144FF03C091337A
:100C400009F40150101624F4093018F008E001C02E
:100C500001E0AB0177FF02C040E050E0FB01E41B84
:100C6000F50BA1E0B0E0AC0FBD1FEA0FFB1F8EE259
:100C7000A82E4B01801A91080B2D10E011950195BB
:100C800011094F3FBFEF5B0721F4D601AC921196DB
:100C90006D01641775072CF08416950614F4818194
:100CA00001C080E3415051093196D60111967D0172
:100CB0004017510724F0D6018C936701E2CF6417E7
:100CC000750739F4963320F4953319F4311101C0C6
:100CD00081E3F6018083F701822F90E2882319F0E7
:100CE00091938150FBCFF701E20FF11D108280E05C
:100CF00090E02996ECE00C947707283008F027E084
:100D00003327DA01990F311D87FD91600096610547
:100D1000710539F432602E5F3D9330E32A95E1F797
:100D200008959F3F30F080387105610509F03C5F00
:100D30003C5F3D93913008F08068911DDF93CF9325
:100D40001F930F93FF92EF92192F987F9695E92F9B
:100D500096959695E90FFF27EE53FF4F9927332776
:100D6000EE24FF24A701E70105900894079428F4D6
:100D7000360FE71EF81E491F511D660F771F881F8B
:100D8000991F0694A1F70590079428F4E70EF81E22
:100D9000491F561FC11D770F881F991F661F069494
:100DA000A1F70590079428F4F80E491F561FC71F96
:100DB000D11D880F991F661F771F0694A1F7059014
:100DC000079420F4490F561FC71FD81F990F661F9D
:100DD000771F881F0694A9F784911095177041F02A
:100DE000D695C79557954795F794E7941A95C1F707
:100DF000E8E6F0E06894159015913591659195912C
:100E000005907FE27395E118F10A430B560BC90B6D
:100E1000D009C0F7E10CF11E431F561FC91FD01D9A
:100E20007EF4703311F48A95E6CFE894015030F0E7
:100E3000080F0AF40027021708F4202F2395022F29
:100E40007A3328F079E37D932A95E9F710C07D93F2
:100E50002A9589F60694979567953795179517946F
:100E6000E118F10A430B560BC90BD00998F02395F2
:100E70007E9173957A3308F070E37C932013B8F772
:100E80007E9170617D9330F0839571E37D9370E383
:100E90002A95E1F71124EF90FF900F911F91CF91C8
:100EA000DF91992787FD909508952F923F924F9259
:100EB0005F926F927F928F929F92AF92BF92CF92EA
:100EC000DF92EF92FF920F931F93CF93DF93CDB7F3
:100ED000DEB7CA1BDB0B0FB6F894DEBF0FBECDBF6B
:100EE00009942A88398848885F846E847D848C843C
:100EF0009B84AA84B984C884DF80EE80FD800C8145
:100F00001B81AA81B981CE0FD11D0FB6F894DEBF27
:0C0F10000FBECDBFED010895F894FFCF97
:100F1C0054656D70657261747572653A2000C2B06B
:100F2C00432C2048756D69646974793A2000250D4D
:100F3C000A007374617475732069733A2000303140
:100F4C0032333435363738394142434445460069EB
:100F5C006E69742072656769737465720D0A00722C
:100F6C00656365697665642073746174757320308C
:100F7C007831382E2E2E20696E697469616C697A0D
:0A0F8C00696E672E2E2E0D0A00007C
:00000001FF
