:100000000C9434000C9449000C9449000C94490061
:100010000C9449000C9449000C9449000C9449003C
:100020000C9449000C9449000C9449000C9449002C
:100030000C9449000C9449000C9449000C9449001C
:100040000C9449000C9449000C9449000C9449000C
:100050000C9449000C9449000C9449000C944900FC
:100060000C9449000C94490011241FBECFEFD8E036
:10007000DEBFCDBF11E0A0E0B1E0EEE7F2E002C0EC
:1000800005900D92A837B107D9F70E9400010C9492
:100090003D010C940000CF93DF93EB0160E071E031
:1000A0000E94EB00892B41F46BE071E0CE010E94CD
:1000B000EB0021E0892B09F020E0822FDF91CF9126
:1000C000089588E090E09093C5008093C400E1EC2F
:1000D000F0E080818861808308959091C00095FF51
:1000E000FCCF8093C60008958091C00087FFFCCFAD
:1000F0008091C6000895EF92FF920F931F93CF93C4
:10010000DF937C01062FC0E0D0E00E947400182F1E
:100110008F3789F4209729F0F701EC0FFD1F10822B
:10012000219788E00E946D0080E20E946D0088E0C7
:100130000E946D0009C08D3069F0F701EC0FFD1FC2
:100140008083219601111AE2812F0E946D00CE3F1B
:10015000D105DCF2CE0DDF1D1882DF91CF911F910A
:100160000F91FF90EF900895CF93DF93EC01899169
:10017000882319F00E946D00FACFDF91CF91089586
:10018000CF93DF93EC0180E191E00E94B400CE01B7
:100190000E94B4008EE191E0DF91CF910C94B40005
:1001A00085E291E00C94B40091E186E095B92FEFDF
:1001B00033ED40E3215030404040E1F700C0000003
:1001C00085B92FEF33ED40E3215030404040E1F757
:1001D00000C00000EBCFAC01FB01DC019D01241B42
:1001E000350B9D91992319F081919817B9F3892FB7
:1001F00090E0FB01E20FF31F2081821B910908951B
:10020000CF93DF93CDB7DEB7CE5FD1400FB6F89472
:10021000DEBF0FBECDBF0E94610084B1876184B98B
:1002200085B1887E85B98AE491E00E94B4008EE5AC
:1002300091E00E94B40060E0CE0193950E947B00A3
:100240008AE691E00E94B40061E0CE0101960E942E
:100250007B00BE016F5F7F4FCE0193950E944B00E4
:10026000882331F0CE0193950E94C0000E94D400F3
:0E02700085E291E00E94B400D6CFF894FFCF53
:10027E0072616E74616E706C616E00706174650097
:10028E000D0A4F756166204F7561662C2000202186
:10029E0021210D0A00486F77206461726520796F05
:1002AE00752C2066696C746879202A2A2A2A2A2AD3
:1002BE002A2021212121210D0A00456E746572200C
:1002CE00796F7572206C6F67696E3A0D0A00097549
:1002DE007365726E616D653A20000D0A0970617367
:0802EE0073776F72643A20007F
:00000001FF
