:100000000C9434000C9449000C9449000C94490061
:100010000C9449000C9449000C9449000C9449003C
:100020000C9449000C9449000C9449000C9449002C
:100030000C9449000C9449000C9449000C9449001C
:100040000C9449000C9449000C94A5000C944900B0
:100050000C9449000C9449000C9449000C944900FC
:100060000C9449000C94490011241FBECFEFD8E036
:10007000DEBFCDBF11E0A0E0B1E0EEEFF1E002C0E5
:1000800005900D92A832B107D9F70E94D6000C94C2
:10009000FD000C94000088E090E09093C5008093F0
:1000A000C400E1ECF0E08081886180830895909144
:1000B000C00095FFFCCF8093C60008958091C000DA
:1000C00087FFFCCF8091C6000895EF92FF921F93A7
:1000D000CF93DF937C01C0E0D0E00E945E00182F38
:1000E0008F3789F4209729F0F701EC0FFD1F10825C
:1000F000219788E00E94570080E20E94570088E024
:100100000E94570007C08D3059F0F701EC0FFD1F1A
:1001100080832196812F0E945700CE3FD105ECF2BB
:10012000CE0DDF1D1882DF91CF911F91FF90EF90D0
:100130000895CF93DF93EC018991882319F00E94F1
:100140005700FACFDF91CF9108951F920F920FB60B
:100150000F9211242F933F934F935F936F937F934D
:100160008F939F93AF93BF93EF93FF938091C600BC
:100170009FEB980F9A3110F4805E05C09FE9980FAD
:100180009A3108F480520E945700FF91EF91BF917D
:10019000AF919F918F917F916F915F914F913F911F
:1001A0002F910F900FBE0F901F901895CF93DF9354
:1001B000CDB7DEB7CF5FD1090FB6F894DEBF0FBE63
:1001C000CDBF0E944B00789480E091E00E9499009E
:1001D00084E191E00E949900CE0101960E946500A1
:1001E0008FE191E00E949900CE0101960E94990052
:0E01F00081E191E00E949900E7CFF894FFCFE3
:1001FE00456E74657220796F7572206C6F67696ECB
:10020E003A0D0A00757365726E616D653A20000DC8
:08021E000A48656C6C6F2000BA
:00000001FF
