:100000000C9434000C943E000C943E000C943E0082
:100010000C943E000C943E000C943E000C943E0068
:100020000C943E000C943E000C943E000C943E0058
:100030000C943E000C943E000C943E000C943E0048
:100040000C943E000C943E000C943E000C943E0038
:100050000C943E000C943E000C943E000C943E0028
:100060000C943E000C943E0011241FBECFEFD8E04C
:10007000DEBFCDBF0E9440000C9473000C940000C2
:1000800084B1876184B985B1887E85B980E090E0CC
:1000900070E060E04A9905C0611104C0019661E01A
:1000A00001C060E04C9905C0711104C0019771E076
:1000B00001C070E09C0122703327AC0141705527CC
:1000C000242BAC0144705527422B9C012870332708
:1000D000220F331F242B25B9E7E9FAE33197F1F713
:0A00E00000C00000D7CFF894FFCF56
:00000001FF
