:100000000C9434000C9449000C9449000C94490061
:100010000C9449000C9449000C9449000C9449003C
:100020000C9449000C9449000C9449000C9449002C
:100030000C9449000C9449000C9449000C9449001C
:100040000C9449000C9449000C94C2000C94490093
:100050000C9449000C9449000C9449000C944900FC
:100060000C9449000C94490011241FBECFEFD8E036
:10007000DEBFCDBF11E0A0E0B1E0EAE9F3E002C0ED
:1000800005900D92A632B107D9F70E949D010C94FC
:10009000CB010C940000482F90917C00907F282F7A
:1000A0002F70922B90937C0090917A0090649093A3
:1000B0007A0080917A0086FDFCCF209178009091A3
:1000C0007900937030E0B901792BCB01483011F4FD
:1000D000865591400E94A900089588E090E0909391
:1000E000C5008093C400E1ECF0E0808188698083E2
:1000F00008958091C00087FFFCCF8091C6000895CD
:100100009091C00095FFFCCF8093C6000895CF93D7
:10011000DF93EC018991882319F00E948000FACFC7
:10012000DF91CF910895CF93DF9300D01F92CDB789
:10013000DEB7BE016F5F7F4F90E00E94E800CE0106
:1001400001960E9487000F900F900F90DF91CF9142
:100150000895CF93DF9300D000D000D0CDB7DEB7A5
:10016000BE016F5F7F4F0E943A01CE0101960E944F
:10017000870026960FB6F894DEBF0FBECDBFDF9185
:10018000CF9108951F920F920FB60F9211242F93C3
:100190003F934F935F936F937F938F939F93AF930F
:1001A000BF93EF93FF938091C6000E948000FF9160
:1001B000EF91BF91AF919F918F917F916F915F91DF
:1001C0004F913F912F910F900FBE0F901F90189558
:1001D000CF93DF93CDB7DEB761970FB6F894DEBF4C
:1001E0000FBECDBF9C01E1E0F0E02031310538F0D9
:1001F00044E0369527954A95E1F73196F6CF9B0175
:100200002E0F3F1FF901108241E1E4E1F1E0DE0130
:10021000119601900D924A95E1F7F9019F01261B75
:10022000370B8031910588F0DC01AF70BB2721E0EE
:1002300030E02C0F3D1FA20FB31F2C91229324E01E
:10024000969587952A95E1F7E9CFFB01E20FF31F19
:100250003197A1E0B0E0AC0FBD1FA80FB91F8C9182
:10026000808361960FB6F894DEBF0FBECDBFDF91DD
:10027000CF910895EF92FF920F931F93CF93DF9347
:10028000CDB7DEB761970FB6F894DEBF0FBECDBF16
:100290009C018B01E1E0F0E04AE0E42EF12C8A3091
:1002A000910530F0B7010E94B701CB013196F7CF2D
:1002B000C8018E0F9F1FDC011C924BE0E0E0F1E0D3
:1002C000DE01119601900D924A95E1F7FE013C96F0
:1002D00046E0DF011D924A95E9F7FC018AE0E82E2D
:1002E000F12CDF01A01BB10B2A30310570F0C901E0
:1002F000B7010E94B701A1E0B0E0AC0FBD1FA80F8D
:10030000B91F8C9182939B01ECCFA00FB11F119765
:10031000E1E0F0E0EC0FFD1FE20FF31F80818C9312
:1003200061960FB6F894DEBF0FBECDBFDF91CF91BF
:100330001F910F91FF90EF9008950E946D007894A7
:1003400080EC80937C0087E880937A0088E00E94AC
:100350004B0081E191E00E9487002FEF83ED90E355
:10036000215080409040E1F700C00000EFCFAA1B71
:10037000BB1B51E107C0AA1FBB1FA617B70710F090
:10038000A61BB70B881F991F5A95A9F780959095C2
:0A039000BC01CD010895F894FFCFE1
:10039A003031323334353637383900000000000046
:1003AA00000D0A003031323334353637383941429C
:0603BA004344454600002B
:00000001FF
