:100000000C9434000C9449000C9449000C94490061
:100010000C9449000C9449000C9449000C9449003C
:100020000C9449000C9449000C9449000C9449002C
:100030000C9449000C9449000C9449000C9449001C
:100040000C9449000C9449000C94C5000C94490090
:100050000C9449000C9449000C9449000C944900FC
:100060000C9449000C94490011241FBECFEFD8E036
:10007000DEBFCDBF11E0A0E0B1E0E0EAF2E002C0F7
:1000800005900D92A431B107D9F70E943D010C945F
:100090004E010C9400008AB188668AB98BB18779C9
:1000A0008BB983EA84BD85E085BD17BC18BC93E29B
:1000B0009093B0008093B1001092B400089567BD92
:1000C00088BD4093B40008958095853550F4982FED
:1000D000990F890F982F909517BC98BD8093B40005
:1000E00008958A3A58F48555982F990F890F982FBB
:1000F000909587BD18BC9093B40008958A5A982FA4
:10010000990F890F982F909597BD88BD1092B400D4
:10011000089588E090E09093C5008093C400E1ECDE
:10012000F0E080818869808308958091C00087FF16
:10013000FCCF8091C60008959091C00095FFFCCF40
:100140008093C6000895CF93DF93EC0189918823B3
:1001500019F00E949C00FACFDF91CF910895CF93C0
:10016000DF9300D01F92CDB7DEB7BE016F5F7F4F28
:1001700090E00E94EB00CE0101960E94A3000F9038
:100180000F900F90DF91CF9108951F920F920FB6AD
:100190000F9211242F933F934F935F936F937F930D
:1001A0008F939F93AF93BF93EF93FF938091C6007C
:1001B0000E949C00FF91EF91BF91AF919F918F9111
:1001C0007F916F915F914F913F912F910F900FBE53
:1001D0000F901F901895CF93DF93CDB7DEB761973F
:1001E0000FB6F894DEBF0FBECDBF9C01E1E0F0E09A
:1001F0002031310538F044E0369527954A95E1F7EE
:100200003196F6CF9B012E0F3F1FF901108241E17D
:10021000E3E0F1E0DE01119601900D924A95E1F7DD
:10022000F9019F01261B370B8031910588F0DC0115
:10023000AF70BB2721E030E02C0F3D1FA20FB31F92
:100240002C91229324E0969587952A95E1F7E9CFA2
:10025000FB01E20FF31F3197A1E0B0E0AC0FBD1F2F
:10026000A80FB91F8C91808361960FB6F894DEBFFA
:100270000FBECDBFDF91CF9108950E944B00C0E02B
:100280008C2F0E946400CF5F2FE786E091E0215021
:1002900080409040E1F700C00000F2CFF894FFCF1B
:1002A0000101003031323334353637383941424379
:0402B000444546007B
:00000001FF
