:100000000C9434000C943E000C943E000C943E0082
:100010000C943E000C943E000C943E000C943E0068
:100020000C943E000C943E000C943E000C943E0058
:100030000C943E000C943E000C943E000C943E0048
:100040000C943E000C943E000C943E000C943E0038
:100050000C943E000C943E000C943E000C943E0028
:100060000C943E000C943E0011241FBECFEFD8E04C
:10007000DEBFCDBF0E9440000C9455000C940000E0
:10008000209A289880E091E04A9907C0811106C023
:1000900085B1892785B981E001C080E0E7E9FAE30D
:0E00A0003197F1F700C00000EFCFF894FFCFCA
:00000001FF
