:100000000C9434000C943E000C943E000C943E0082
:100010000C943E000C943E000C943E000C943E0068
:100020000C943E000C943E000C943E000C943E0058
:100030000C943E000C943E000C943E000C943E0048
:100040000C943E000C943E000C943E000C943E0038
:100050000C943E000C943E000C943E000C943E0028
:100060000C943E000C943E0011241FBECFEFD8E04C
:10007000DEBFCDBF0E9440000C945A000C940000DB
:10008000209A289880E090E04A990CC081110BC01A
:10009000911104C0289A81E091E005C0289881E080
:1000A00090E001C080E0EFE3FCE93197F1F700C098
:0800B0000000EACFF894FFCF35
:00000001FF
